:020000040800F2
:100000000050002021020008270200082B020008EF
:1000100043020008470200085F02000800000000D9
:10002000000000000000000000000000770200084F
:100030007B020008000000007F020008050700089E
:100040009102000891020008910200089102000844
:100050009102000891020008910200089102000834
:100060009102000891020008910200089102000824
:100070009102000891020008910200089102000814
:100080009102000891020008190800089102000876
:1000900091020008910200089102000891020008F4
:1000A00091020008910200089102000891020008E4
:1000B00091020008910200089102000891020008D4
:1000C00091020008910200089102000891020008C4
:1000D00091020008910200089102000891020008B4
:1000E000910200089102000891020008000000003F
:1000F0000000000000000000000000000000000000
:1001000000000000000000005FF808F100B583B0B7
:1001100000F0E0F8304B314A1360314A1360314B44
:10012000314A32498B4204D21168196004330432D7
:10013000F7E72A4B1A682E4B9A4200D0FEE7284B6D
:100140001A682C4B9A42F9D1234B2B4A13602B4A45
:1001500013602B4B02E000221A600433294A9342B9
:10016000F9D3254B1B6813B9244B1B6803B1FEE779
:1001700000F0BCF8694601A800F0A4F8224C234B1B
:10018000E41AA4100025AC4214DC214C214BE41AE3
:10019000A4100025AC4213DC0099019800F01EFB6E
:1001A00005461D4C1D4BE41AA410002C0EDC2846FD
:1001B00000F086F8154B53F8253098470135E2E7F3
:1001C000144B53F8253098470135E3E7013C134BB6
:1001D00053F824309847E8E7BABADECA0000002096
:1001E0002000002000000020A813000824000020A8
:1001F00078563412325476982400002048000020AB
:10020000240000204C000020BC020008BC020008B2
:10021000BC020008BC020008BC020008BC020008C6
:1002200008B5FFF773FF00BEFEE71EF0040F0CBF1A
:10023000EFF30880EFF309807146124A104700BEC1
:10024000FEE700BEFEE71EF0040F0CBFEFF30880D0
:10025000EFF3098071460C4A104700BEFEE71EF01E
:10026000040F0CBFEFF30880EFF309807146074AD3
:10027000104700BEFEE700BEFEE700BEFEE700BE80
:10028000FEE770473F0200085B02000873020008A7
:0402900000BEFEE7C7
:10029400A81300080000002024000020A813000870
:1002A4000000000000000000240000204C0000209A
:0802B400000000000000000042
:1002C000FEE7000001230360014B0B60704700BF95
:1002D0000400002008B500F073F8024A024B9A604F
:1002E00008BD00BF0000000800ED00E008B500F008
:1002F0008FF808BD82B00023019300932C4A136845
:1003000043F4803313602A4B1B6803F400330093DB
:10031000019B01330193009B1BB9019BB3F5A06FB7
:10032000F1D1234B1B6813F4003F06D00123009347
:10033000009B012B04D002B0704700230093F7E725
:100340001C4B1A6842F010021A601A6822F003026D
:100350001A601A6842F002021A60A3F580535A68C4
:100360005A605A685A605A6842F480625A605A6801
:1003700022F47C125A605A6842F4E8125A601A68F1
:1003800042F080721A600A4B1B6813F0007FFAD0AB
:10039000074B5A6822F003025A605A6842F0020280
:1003A0005A60034B5B6803F00C03082BF9D1C2E7DA
:1003B000001002400020024008B5FFF79BFF08BD77
:1003C00008B5104B1A6842F001021A6059680E4ACB
:1003D0000A405A601A6822F0847222F480321A604D
:1003E0001A6822F480221A605A6822F4FE025A60C7
:1003F0004FF41F029A60FFF7DFFF044B4FF00062DB
:100400009A6008BD001002400000FFF800ED00E017
:100410001F4B5B6803F00C03042B15D0082B17D07F
:100420001BB11C4B1C4A1A6002E01A4B1A4A1A6094
:10043000174B5B68C3F30313184AD35CDAB2154950
:100440000B68D3400B607047124B134A1A60EFE7FA
:100450000F4A53685268C3F38343023312F4803F58
:100460000AD00B4A526812F4003F0BD00C4A02FB30
:1004700003F3084A1360DBE7094A02FB03F3054A6A
:100480001360D5E7044A02FB03F3024A1360CFE787
:10049000001002401C00002000127A000C00002016
:1004A00000093D00224B9A6842F002029A60DA6A23
:1004B00022F48012DA62DA6A22F40012DA62DA6A6C
:1004C00022F48002DA62DA6A22F40002DA625A6BFB
:1004D00022F001025A635A6B22F002025A635A6BED
:1004E00022F004025A635A6B22F008025A635A6BD4
:1004F00022F010025A639A6822F400629A609A68A5
:1005000042F400329A609A6842F480229A609A68B3
:1005100042F400229A609A6842F480129A609A68C3
:1005200042F001029A609A6842F480029A60704731
:1005300000240140024A536843F02003536070478F
:100540000024014010B407292DD8012811D018B17A
:1005500002281BD010BC704789000F2303FA01F05A
:10056000294C236823EA000302FA01F119432160B0
:10057000F0E789000F2303FA01F0244C236823EAF3
:10058000000302FA01F119432160E3E789000F2318
:1005900003FA01F01E4C236823EA000302FA01F17A
:1005A00019432160D6E70F29D4D801281ED078B18D
:1005B0000228CFD1A1F108039B000F209840154CD1
:1005C000216821EA000002FA03F101432160C1E73A
:1005D000A1F10804A4000F23A3400F48016821EAF9
:1005E000030302FA04F119430160B3E7A1F1080023
:1005F00080000F238340094C216821EA030302FA9B
:1006000000F119432160A5E700080140000C0140FA
:10061000001001400410014004080140040C014096
:100620001F2808D93B2805D82038012303FA00F0F9
:10063000044B18607047012303FA00F0024B186066
:10064000704700BF04E100E000E100E01F291CD872
:1006500001280BD010B1022810D07047012303FAF3
:1006600001F10A4A13680B4313607047012303FA30
:1006700001F1074A13680B4313607047012303FA23
:1006800001F1044A13680B431360704714100240D1
:100690001C10024018100240034B4FF080721A6089
:1006A000043302221A60704700100240084B586061
:1006B000002098601A6842F001021A601A6842F03D
:1006C00002021A60034B1960034B1870704700BF99
:1006D00010E000E0380000203C000020044B1A68C5
:1006E00022F001021A601A6822F002021A607047B2
:1006F00010E000E0024B58689B68C01A704700BFCA
:1007000010E000E008B5084B1B7843B9074B1A68A6
:1007100022F001021A601A6822F002021A60044BE9
:100720001B68984708BD00BF3C00002010E000E0B7
:10073000380000207047000010B504461E4B1B68AF
:1007400043B3FFF7D7FF1D4B1860FFF7C7FF1A4BE6
:1007500000221A60204600F00BFA13A3D3E900230D
:1007600000F070FA0022164B00F06CFA0022154BD4
:1007700000F068FA0EA3D3E9002300F0ABF800F014
:1007800073FC114B18601868104900F071FD104B94
:10079000186010BD0F491048FFF788FF064B012273
:1007A0001A60D7E7AFF300806666666666660A4041
:1007B0000000000000C899403400002044000020E0
:1007C0000000303F00408F40300000200000A0417A
:1007D0002C00002035070008A086010008B5FFF7AF
:1007E0005BFF02210846FFF731FF09210220FFF7D6
:1007F0002DFF002211461046FFF7A4FE1220FFF73E
:100800000FFFFFF74FFE0248FFF794FEFEE700BF21
:10081000390700080000000008B5214BDB6C9BB2D3
:10082000204A1360204B1B6853B3FFF763FF1F4B35
:100830001860FFF753FF1C4B00221A60194B186811
:1008400000F096F912A3D3E9002300F0FBF900228F
:10085000174B00F0F7F90022164B00F0F3F90EA346
:10086000D3E9002300F036F800F0FEFB124B1860CD
:100870001868124900F0FCFC114B186000BF08BD5D
:1008800010491148FFF712FF074B01221A60D5E704
:100890006666666666660A400000000000C8994009
:1008A00000240140400000203400002044000020CB
:1008B0000000303F00408F40300000200000A04189
:1008C0002C00002035070008A086010081F00041BF
:1008D00002E000BF83F0004330B54FEA41044FEA25
:1008E000430594EA050F08BF90EA020F1FBF54EAC0
:1008F000000C55EA020C7FEA645C7FEA655C00F05C
:10090000E2804FEA5454D4EB5555B8BF6D420CDD2C
:100910002C4480EA020281EA030382EA000083EAAF
:10092000010180EA020281EA0303362D88BF30BD4F
:1009300011F0004F4FEA01314FF4801C4CEA1131A5
:1009400002D0404261EB410113F0004F4FEA033304
:100950004CEA133302D0524263EB430394EA050F8F
:1009600000F0A780A4F10104D5F1200E0DDB02FAFE
:100970000EFC22FA05F2801841F1000103FA0EF292
:10098000801843FA05F359410EE0A5F120050EF158
:10099000200E012A03FA0EFC28BF4CF0020C43FA89
:1009A00005F3C01851EBE37101F0004507D54FF096
:1009B000000EDCF1000C7EEB00006EEB0101B1F5E6
:1009C000801F1BD3B1F5001F0CD349085FEA30002C
:1009D0004FEA3C0C04F101044FEA445212F5800F37
:1009E00080F09A80BCF1004F08BF5FEA500C50F1D4
:1009F000000041EB045141EA050130BD5FEA4C0CB7
:100A0000404141EB010111F4801FA4F10104E9D13F
:100A100091F0000F04BF01460020B1FA81F308BF36
:100A20002033A3F10B03B3F120020CDA0C3208DD02
:100A300002F1140CC2F10C0201FA0CF021FA02F1DD
:100A40000CE002F11402D8BFC2F1200C01FA02F14D
:100A500020FA0CFCDCBF41EA0C019040E41AA2BF72
:100A600001EB0451294330BD6FEA04041F3C1CDA3A
:100A70000C340EDC04F11404C4F1200220FA04F05A
:100A800001FA02F340EA030021FA04F345EA030104
:100A900030BDC4F10C04C4F1200220FA02F001FAC6
:100AA00004F340EA0300294630BD21FA04F0294648
:100AB00030BD94F0000F83F4801306BF81F48011E1
:100AC0000134013D4EE77FEA645C18BF7FEA655C54
:100AD00029D094EA050F08BF90EA020F05D054EA26
:100AE000000C04BF1946104630BD91EA030F1EBF2B
:100AF0000021002030BD5FEA545C05D1400049412F
:100B000028BF41F0004130BD14F580043CBF01F521
:100B1000801130BD01F0004545F0FE4141F4700107
:100B20004FF0000030BD7FEA645C1ABF19461046E2
:100B30007FEA655C1CBF0B46024650EA013406BFE3
:100B400052EA033591EA030F41F4002130BD00BFA2
:100B500090F0000F04BF0021704730B54FF480645F
:100B600004F132044FF000054FF0000150E700BFE0
:100B700090F0000F04BF0021704730B54FF480643F
:100B800004F1320410F0004548BF40424FF000012C
:100B90003EE700BF42004FEAE2014FEA31014FEA6F
:100BA00002701FBF12F07F4393F07F4F81F06051BE
:100BB000704732F07F4208BF704793F07F4F04BF09
:100BC00041F40021704730B54FF4607401F00045E6
:100BD00021F000411CE700BF50EA010208BF704746
:100BE00030B54FF000050AE050EA010208BF704737
:100BF00030B511F0004502D5404261EB41014FF4A0
:100C0000806404F132045FEA915C3FF4D8AE4FF0A7
:100C100003025FEADC0C18BF03325FEADC0C18BF8A
:100C2000033202EBDC02C2F1200300FA03FC20FADB
:100C300002F001FA03FE40EA0E0021FA02F1144428
:100C4000BDE600BF70B54FF0FF0C4CF4E06C1CEA41
:100C500011541DBF1CEA135594EA0C0F95EA0C0FB2
:100C600000F0DEF82C4481EA030621EA4C5123EA25
:100C70004C5350EA013518BF52EA033541F4801154
:100C800043F4801338D0A0FB02CE4FF00005E1FB07
:100C900002E506F00042E0FB03E54FF00006E1FB51
:100CA00003569CF0000F18BF4EF0010EA4F1FF0494
:100CB000B6F5007F64F5407404D25FEA4E0E6D41D4
:100CC00046EB060642EAC62141EA55514FEAC520E5
:100CD00040EA5E504FEACE2EB4F1FD0C88BFBCF561
:100CE000E06F1ED8BEF1004F08BF5FEA500E50F112
:100CF000000041EB045170BD06F0004646EA0101D8
:100D000040EA020081EA0301B4EB5C04C2BFD4EB09
:100D10000C0541EA045170BD41F480114FF0000E02
:100D2000013C00F3AB8014F1360FDEBF002001F070
:100D3000004170BDC4F10004203C35DA0C341BDCEA
:100D400004F11404C4F1200500FA05F320FA04F0BC
:100D500001FA05F240EA020001F0004221F00041F0
:100D600010EBD37021FA04F642EB06015EEA430E63
:100D700008BF20EAD37070BDC4F10C04C4F1200593
:100D800000FA04F320FA05F001FA04F240EA020046
:100D900001F0004110EBD37041F100015EEA430E17
:100DA00008BF20EAD37070BDC4F1200500FA05F237
:100DB0004EEA020E20FA04F301FA05F243EA0203B6
:100DC00021FA04F001F0004121FA04F220EA0200C5
:100DD00000EBD3705EEA430E08BF20EAD37070BD0B
:100DE00094F0000F0FD101F00046400041EB0101EB
:100DF00011F4801F08BF013CF7D041EA060195F0CD
:100E0000000F18BF704703F00046520043EB030386
:100E100013F4801F08BF013DF7D043EA0603704773
:100E200094EA0C0F0CEA135518BF95EA0C0F0CD07E
:100E300050EA410618BF52EA4306D1D181EA0301C4
:100E400001F000414FF0000070BD50EA410606BFBE
:100E50001046194652EA430619D094EA0C0F02D103
:100E600050EA013613D195EA0C0F05D152EA033648
:100E70001CBF104619460AD181EA030101F0004166
:100E800041F0FE4141F470014FF0000070BD41F0AF
:100E9000FE4141F4780170BD70B54FF0FF0C4CF489
:100EA000E06C1CEA11541DBF1CEA135594EA0C0FA8
:100EB00095EA0C0F00F0A7F8A4EB050481EA030EF5
:100EC00052EA03354FEA013100F088804FEA0333DC
:100ED0004FF0805545EA131343EA12634FEA0222AA
:100EE00045EA111545EA10654FEA00260EF000416B
:100EF0009D4208BF964244F1FD0404F5407402D2BD
:100F00005B084FEA3202B61A65EB03055B084FEA4D
:100F100032024FF480104FF4002CB6EB020E75EB4A
:100F2000030E22BFB61A754640EA0C005B084FEA72
:100F30003202B6EB020E75EB030E22BFB61A7546EF
:100F400040EA5C005B084FEA3202B6EB020E75EB3A
:100F5000030E22BFB61A754640EA9C005B084FEAB2
:100F60003202B6EB020E75EB030E22BFB61A7546BF
:100F700040EADC0055EA060E18D04FEA051545EAAE
:100F800016754FEA06164FEAC30343EA52734FEA57
:100F9000C2025FEA1C1CC0D111F4801F0BD141EAD0
:100FA00000014FF000004FF0004CB6E711F4801F35
:100FB00004BF01430020B4F1FD0C88BFBCF5E06F15
:100FC0003FF6AFAEB5EB030C04BFB6EB020C5FEA25
:100FD000500C50F1000041EB045170BD0EF0004E7A
:100FE0004EEA113114EB5C04C2BFD4EB0C0541EAAC
:100FF000045170BD41F480114FF0000E013C90E6A9
:1010000045EA060E8DE60CEA135594EA0C0F08BF6C
:1010100095EA0C0F3FF43BAF94EA0C0F0AD150EA6B
:1010200001347FF434AF95EA0C0F7FF425AF1046FE
:1010300019462CE795EA0C0F06D152EA03353FF426
:10104000FDAE1046194622E750EA410618BF52EAA3
:1010500043067FF4C5AE50EA41047FF40DAF52EA77
:1010600043057FF4EBAE12E74FEA4102B2F1E043F1
:1010700024BFB3F5001CDCF1FE5C0DD901F0004C7F
:101080004FEAC0024CEA5070B2F1004F40EB8300CF
:1010900008BF20F00100704711F0804F21D113F1FB
:1010A0003872BCBF01F00040704741F480114FEA34
:1010B0005252C2F11802C2F1200C10FA0CF320FABD
:1010C00002F018BF40F001004FEAC1234FEAD323DA
:1010D00003FA0CFC40EA0C0023FA02F34FEA430344
:1010E000CCE77FEA625307D150EA01331EBF4FF0CD
:1010F000FE4040F44000704701F0004040F0FE40E8
:1011000040F40000704700BF4FF0FF0C1CEAD052C3
:101110001EBF1CEAD15392EA0C0F93EA0C0F6FD05A
:101120001A4480EA010C400218BF5FEA41211ED038
:101130004FF0006343EA501043EA5111A0FB013124
:101140000CF00040B1F5000F3EBF490041EAD371F9
:101150005B0040EA010062F17F02FD2A1DD8B3F175
:10116000004F40EBC25008BF20F00100704790F0E4
:10117000000F0CF0004C08BF49024CEA502040EA36
:1011800051207F3AC2BFD2F1FF0340EAC2507047FC
:1011900040F400004FF00003013A5DDC12F1190F3A
:1011A000DCBF00F000407047C2F10002410021FAAC
:1011B00002F1C2F1200200FA02FC5FEA310040F1C4
:1011C000000053EA4C0308BF20EADC70704792F03D
:1011D000000F00F0004C02BF400010F4000F013A75
:1011E000F9D040EA0C0093F0000F01F0004C02BF70
:1011F000490011F4000F013BF9D041EA0C018FE7DF
:101200000CEAD15392EA0C0F18BF93EA0C0F0AD0E4
:1012100030F0004C18BF31F0004CD8D180EA01000A
:1012200000F00040704790F0000F17BF90F0004FA3
:10123000084691F0000F91F0004F14D092EA0C0F85
:1012400001D142020FD193EA0C0F03D14B0218BF18
:10125000084608D180EA010000F0004040F0FE405E
:1012600040F40000704740F0FE4040F440007047FA
:101270004FF0FF0C1CEAD0521EBF1CEAD15392EA79
:101280000C0F93EA0C0F69D0A2EB030280EA010C69
:1012900049024FEA402037D04FF0805343EA111102
:1012A00043EA10130CF000408B4238BF5B0042F160
:1012B0007D024FF4000C8B4224BF5B1A40EA0C0005
:1012C000B3EB510F24BFA3EB510340EA5C00B3EB37
:1012D000910F24BFA3EB910340EA9C00B3EBD10F25
:1012E00024BFA3EBD10340EADC001B0118BF5FEA77
:1012F0001C1CE0D1FD2A3FF650AF8B4240EBC250A0
:1013000008BF20F0010070470CF0004C4CEA502060
:101310007F32C2BFD2F1FF0340EAC250704740F4AF
:1013200000004FF00003013A37E792F0000F00F0A1
:10133000004C02BF400010F4000F013AF9D040EA1F
:101340000C0093F0000F01F0004C02BF490011F4B3
:10135000000F013BF9D041EA0C0195E70CEAD153AB
:1013600092EA0C0F08D142027FF47DAF93EA0C0F92
:101370007FF470AF084676E793EA0C0F04D14B0276
:101380003FF44CAF08466EE730F0004C18BF31F028
:10139000004CCAD130F000427FF45CAF31F0004322
:0813A0007FF43CAF5FE700BFE2
:1013A80078563412280000200000000000000000D9
:1013B80000000000010203040607080900A24A040D
:0413C800325476988D
:040000050800010DE1
:00000001FF
